:020000040800F2
:10000000008001201D1D00088509000887090008DF
:10001000890900088B0900088D090008000000000C
:100020000000000000000000000000008F09000830
:1000300091090008000000009309000895090008D4
:100040006D1D00086D1D00086D1D00086D1D000868
:100050006D1D00086D1D00086D1D00086D1D000858
:100060006D1D00086D1D00086D1D00086D1D000848
:100070006D1D00086D1D00086D1D00086D1D000838
:100080006D1D00086D1D00086D1D000800000000BA
:100090000000000000000000000000006D1D0008CE
:1000A0006D1D00086D1D00086D1D00086D1D000808
:1000B0006D1D00086D1D00086D1D00086D1D0008F8
:1000C0006D1D00086D1D00086D1D00086D1D0008E8
:1000D0006D1D00086D1D00086D1D0008000000006A
:1000E0006D1D00086D1D00086D1D0008000000005A
:1000F0000000000000000000000000006D1D00086E
:10010000000000006D1D00086D1D00086D1D000839
:1001100000000000000000000000000000000000DF
:100120006D1D00086D1D00086D1D00086D1D000887
:100130006D1D00080000000000000000000000002D
:100140000000000000000000000000006D1D00081D
:100150006D1D00086D1D00086D1D00086D1D000857
:100160006D1D00086D1D000800000000000000006B
:10017000000000000000000000000000000000007F
:10018000000000006D1D00080000000000000000DD
:040190006D1D0008D9
:1001A00010B5054C237833B9044B13B10448AFF3B1
:1001B00000800123237010BD7000002000000000AB
:1001C000F82C000808B5034B1BB103490348AFF3F3
:1001D000008008BD0000000074000020F82C00081A
:1001E00053B94AB9002908BF00281CBF4FF0FF319E
:1001F0004FF0FF3000F072B9ADF1080C6DE904CE9C
:1002000000F006F8DDF804E0DDE9022304B07047F1
:100210002DE9F047089E04468846002B4BD18A42C0
:10022000154667D9B2FA82F24AB1C2F1200701FA43
:1002300002F320FA07F7954047EA030894404FEA93
:10024000154E230CB8FBFEF71FFA85FC0EFB178832
:1002500043EA084307FB0CF1994209D9EB1807F16F
:10026000FF3080F01B81994240F21881023F2B44FD
:100270005B1AA4B2B3FBFEF00EFB103344EA034456
:1002800000FB0CFCA44509D92C1900F1FF3380F0C8
:100290000781A44540F2048102382C4440EA07401B
:1002A000A4EB0C0400271EB1D4400023C6E9004390
:1002B0003946BDE8F0878B4209D9002E00F0EB806B
:1002C0000027C6E9000138463946BDE8F087B3FA91
:1002D00083F7002F47D18B4202D3824200F2FA808B
:1002E000841A61EB030301209846002EE0D0C6E992
:1002F0000048DDE702B9FFDEB2FA82F2002A40F0E0
:100300008F80491B4FEA154E1FFA85F80127B1FB74
:10031000FEFC230C0EFB1C1143EA014308FB0CF10D
:10032000994207D9EB180CF1FF3002D2994200F242
:10033000CD808446591AA3B2B1FBFEF00EFB101417
:1003400043EA044408FB00F8A04507D92C1900F142
:10035000FF3302D2A04500F2B6801846A4EB080491
:1003600040EA0C409FE7C7F1200CBB4022FA0CFE8C
:100370004EEA030E01FA07F420FA0CF521FA0CF309
:100380004FEA1E482543B3FBF8F92C0C08FB193340
:100390001FFA8EFA44EA034309FB0AF49C4202FA6C
:1003A00007F200FA07F10BD91EEB030309F1FF3046
:1003B00080F087809C4240F28480A9F10209734456
:1003C0001B1BADB2B3FBF8F008FB103345EA034446
:1003D00000FB0AFAA24508D91EEB040400F1FF3322
:1003E0006BD2A24569D90238744440EA0940A0FBA7
:1003F0000289A4EB0A044C45C2464B4654D351D063
:10040000002E69D0B1EB0A0564EB030404FA0CFC7E
:10041000FD40FC404CEA0505C6E90054002747E7CB
:10042000C2F1200320FA03F7954001FA02F021FA05
:1004300003F34FEA154E3843010CB3FBFEF71FFAE6
:1004400085F80EFB173341EA034107FB08F38B42A3
:1004500004FA02F407D9691807F1FF3C2FD28B4246
:100460002DD9023F2944CB1A81B2B3FBFEF00EFB1B
:10047000103341EA034100FB08F38B4207D96918A6
:1004800000F1FF3C17D28B4215D902382944C91A12
:1004900040EA07473BE73746304609E70746E7E6C5
:1004A0001846FBE64145ABD2B8EB020A69EB0E02F7
:1004B00001381346A4E76046E9E7184695E7674622
:1004C000D1E781467CE702382C4447E7ACF1020CC7
:1004D0002B442FE7384608E73746E9E6704700BF68
:1004E00001F0FF01102A2BDB10F0070F08D010F8E5
:1004F000013B013A8B422DD010F0070F42B3F6D1E9
:10050000F0B441EA012141EA014122F007047FF001
:1005100000070023F0E80256083C85EA010586EA58
:10052000010685FA47F5A3FA87F586FA47F6A5FA94
:1005300087F68EB9EED1F0BC01F0FF0102F00702A0
:1005400032B110F8013B013A83EA010313B1F8D14B
:100550000020704701387047002D06BF354603382C
:10056000073815F0010F07D1013015F4807F02BF65
:10057000013015F4C03F0130F0BC0138704700BFB6
:1005800030B58BB000240594069407940894099420
:100590000194224B1A6B42F004021A631A6B02F0A8
:1005A00004020192019A02941A6B42F080021A63CB
:1005B0001A6B02F080020292029A03941A6B42F0C4
:1005C00001021A631A6B02F001020392039A049467
:1005D0001A6B42F002021A631B6B03F002030493CE
:1005E000049B0F4D22462021284600F0ABFB4FF420
:1005F000005305930B4B0693079405A90A4800F096
:10060000CFFA20230593012306930794089405A9A4
:10061000284600F0C5FA0BB030BD00BF00380240DC
:1006200000000240000021100008024008B5034805
:10063000034B036000F0A4FA08BD00BFF4000020E3
:100640000030024008B50B480B4B036000234360A9
:100650004FF480628260C360036143614FF40072B3
:1006600082610362436283620A23C36200F070FF07
:1006700008BD00BF9C0000200038004008B50848B5
:10068000084B03604FF4E133436000238360C36091
:1006900003610C2242618361C36101F09EFA08BDCF
:1006A000FC0000200044004030B595B0302200210D
:1006B00008A801F087FB0024039404940594069491
:1006C000079401941B4B1A6C42F080521A641B6C05
:1006D00003F080530193019B0294174A136823F49B
:1006E000404343F400431360136803F44043029310
:1006F000029B0225089501230B9310230C930E9562
:100700000F9410934FF4A8731193042312930723AB
:10071000139308A800F01CFB0F2303930495059482
:100720004FF4805306930794294603A800F072FD06
:1007300015B030BD003802400070004010B58CB0DC
:1007400000F096F9FFF7B0FFFFF71AFFFFF76EFF13
:10075000FFF778FFFFF792FF174801F0C3FB1DE09A
:100760000CAB234413F82C1C144801F033FB013468
:10077000E4B2272CF4D9124801F02CFB282408E01D
:100780000CAB234413F82C1C0E4801F023FB01345E
:10079000E4B22B2CF4D90A2001F034FB0A232C22DA
:1007A00001A9094801F02BF80028F7D1074801F00A
:1007B00099FB0024DDE700BF282D00083C2D000830
:1007C000402D00084C2D00089C000020302D000812
:1007D00010B582B0044602A901F8040D0A230122D3
:1007E000024801F029FA204602B010BDFC000020AA
:1007F00070B51646002405E04D1C0878FFF7E8FFA9
:1008000001342946B442F7DB304670BD00B583B0F1
:10081000002100910C4B5A6C42F480425A645A6C8D
:1008200002F480420092009A01911A6C42F08052C8
:100830001A641B6C03F080530193019B072000F0A6
:1008400043F903B05DF804FB003802400268094B2D
:100850009A4200D0704782B000230193064B1A6B76
:1008600042F480521A631B6B03F480530193019B83
:1008700002B070470030024000380240F0B589B045
:1008800000230393049305930693079302681F4B79
:100890009A4201D009B0F0BD0024009403F5003362
:1008A0001A6C42F480421A641A6C02F4804200927C
:1008B000009A01941A6B42F004021A631A6B02F058
:1008C00004020192019A02941A6B42F002021A6326
:1008D0001B6B03F002030293029B0823039302277E
:1008E0000497032606960525079503A9084800F0F6
:1008F00057F94FF480630393049705940696079580
:1009000003A9044800F04CF9C4E700BF00380040D8
:10091000000802400004024000B589B000230393A0
:1009200004930593069307930268144B9A4202D0EE
:1009300009B05DF804FB0021019103F5FA331A6C4C
:1009400042F400321A641A6C02F400320192019AE5
:1009500002911A6B42F001021A631B6B03F0010350
:100960000293029B0C230393022304930723079310
:1009700003A9034800F014F9DAE700BF004400407F
:10098000000002407047FEE7FEE7FEE7FEE7704723
:100990007047704708B500F085F808BD70B50D4682
:1009A0001646002404E0AFF30080287001340135BE
:1009B000B442F8DB304670BD08B503460B4A1268F6
:1009C00042B10A4A106803446A46934206D8074A6D
:1009D000136008BD054A06491160F2E701F0C8F945
:1009E0000C2303604FF0FF30F3E700BF8C000020C2
:1009F000480100204FF0FF3070474FF400534B6028
:100A0000002070470120704700207047054BD3F845
:100A1000882042F47002C3F888204FF000629A6088
:100A2000704700BF00ED00E010B504460E4B18788B
:100A30004FF47A73B3FBF0F30C4A1068B0FBF3F099
:100A400000F088F868B90F2C01D901200AE00022D3
:100A500021464FF0FF3000F049F8034B5C60002066
:100A600000E0012010BD00BF0400002000000020B5
:100A700008B50B4B1A6842F400721A601A6842F407
:100A800080621A601A6842F480721A60032000F0D3
:100A90001BF80020FFF7C8FFFFF7B8FE002008BDD5
:100AA000003C0240034A1168034B1B780B4413605F
:100AB000704700BF3C01002004000020014B186873
:100AC000704700BF3C010020074AD36823F4E0636D
:100AD0001B041B0C000200F4E060184340F0BF60F0
:100AE00040F40030D060704700ED00E030B4174BA8
:100AF000DB68C3F30223C3F10704042C28BF0424DA
:100B00001D1D062D18D9033B4FF0FF3505FA04F4DF
:100B100021EA0401994005FA03F322EA0303194389
:100B200000280BDB0901C9B200F1604000F561400B
:100B300080F8001330BC70470023E5E700F00F0099
:100B40000901C9B2024B1954F4E700BF00ED00E0FF
:100B500014ED00E00138B0F1807F0AD2064B5860F6
:100B6000064AF02182F823100020986007221A60BC
:100B700070470120704700BF10E000E000ED00E08A
:100B800058B110B5044643791BB1012363710020AD
:100B900010BD0371FFF75AFEF7E701207047000010
:100BA00000230F2B00F2C580F0B583B039E004229A
:100BB00000E00022AA403A4302345E4D45F824206A
:100BC0005D4A1468F24302EA04054F6817F4803F57
:100BD00001D046EA0405584C2560646802EA040521
:100BE0004F6817F4003F01D046EA0405524C656097
:100BF000A46802EA04054F6817F4801F01D046EA92
:100C000004054D4CA560E46822404D6815F4001FB2
:100C100001D046EA0402484CE26001330F2B00F297
:100C2000868001229A400C6804EA0206B242F4D19E
:100C30004C68651E012D03D9112C01D0122C12D144
:100C400085685F000324BC4025EA0405CC68BC40ED
:100C50002C438460456825EA02054C68C4F3001201
:100C60009A402A434260C4685F000322BA40D243DC
:100C700014408D68BD402543C5604C68022C01D0EE
:100C8000122C13D1DD08083550F825E003F00704D5
:100C90004FEA840C0F2404FA0CF42EEA040E0C69BB
:100CA00004FA0CF444EA0E0440F82540046822409B
:100CB0004C6804F00304BC40224302604A6812F00E
:100CC000805FAAD0002201921C4A546C44F48044F4
:100CD0005464526C02F480420192019A9C08A51C53
:100CE000144A52F8257003F0030295000F22AA401F
:100CF00027EA0207124A90423FF45BAF02F5806296
:100D000090420ED002F5806290420CD002F58062D3
:100D100090420AD002F5806290423FF448AF072229
:100D200048E7012246E7022244E7032242E703B0F4
:100D3000F0BD704700380140003C014000380240DF
:100D40000000024012B90904816170478161704757
:100D5000002800F0E48170B582B00446036813F007
:100D6000010F3BD0A74B9B6803F00C03042B2CD046
:100D7000A44B9B6803F00C03082B21D06368B3F5E8
:100D8000803F4FD0B3F5A02F52D09E4B1A6822F46B
:100D900080321A601A6822F480221A606368002B7D
:100DA00050D0FFF78BFE0546964B1B6813F4003FAF
:100DB00014D1FFF783FE401B6428F5D90320B3E16B
:100DC000904B5B6813F4800FD8D08E4B1B6813F4E4
:100DD000003F03D06368002B00F0A381236813F069
:100DE000020F55D0874B9B6813F00C0F3ED0854BFC
:100DF0009B6803F00C03082B33D0E368002B68D00A
:100E0000814B01221A60FFF759FE05467D4B1B6896
:100E100013F0020F54D1FFF751FE401B0228F5D901
:100E2000032081E1774A136843F480331360B5E708
:100E3000744B1A6842F480221A601A6842F48032B5
:100E40001A60ABE7FFF73AFE05466E4B1B6813F4DA
:100E5000003FC3D0FFF732FE401B6428F5D90320C2
:100E600062E1684B5B6813F4800FC6D1654B1B6869
:100E700013F0020F04D0E368012B01D0012053E1ED
:100E8000604A136823F0F803216943EAC103136041
:100E9000236813F0080F40D0636963B35B4B0122F2
:100EA0001A60FFF70BFE0546564B5B6F13F0020FFF
:100EB00033D1FFF703FE401B0228F5D9032033E1AD
:100EC000504A136823F0F803216943EAC103136011
:100ED000DEE74D4B00221A60FFF7F0FD0546494B57
:100EE0001B6813F0020FD3D0FFF7E8FD401B022868
:100EF000F5D9032018E1454B00221A60FFF7DEFD0B
:100F00000546404B5B6F13F0020F06D0FFF7D6FD8E
:100F1000401B0228F5D9032006E1236813F0040FD3
:100F200079D0384B1B6C13F0805F33D100230193D1
:100F3000344B1A6C42F080521A641B6C03F08053DD
:100F40000193019B0125324B1B6813F4807F23D052
:100F5000A368012B34D0052B38D02A4B1A6F22F00E
:100F600001021A671A6F22F004021A67A368002BA5
:100F700036D0FFF7A3FD0646224B1B6F13F0020F7E
:100F800048D1FFF79BFD801B41F288339842F3D98B
:100F90000320C9E00025D6E71D4A136843F4807397
:100FA0001360FFF78BFD0646194B1B6813F4807F17
:100FB000CED1FFF783FD801B0228F5D90320B3E0D3
:100FC000104A136F43F001031367CFE70D4B1A6FFD
:100FD00042F004021A671A6F42F001021A67C5E76D
:100FE000FFF76CFD0646074B1B6F13F0020F11D085
:100FF000FFF764FD801B41F288339842F3D9032048
:1010000092E000BF0038024000004742800E474295
:1010100000700040EDB9A369002B00F08480454AC0
:10102000926802F00C02082A51D0022B17D0424BD2
:1010300000221A60FFF742FD04463E4B1B6813F086
:10104000007F42D0FFF73AFD001B0228F5D90320AC
:101050006AE0384A136C23F080531364DBE7364BA5
:1010600000221A60FFF72AFD0546324B1B6813F079
:10107000007F06D0FFF722FD401B0228F5D9032090
:1010800052E0E369226A1343626A43EA8213A26A66
:101090005208013A43EA0243E26A43EA0263254AFC
:1010A0005360254B01221A60FFF708FD0446214BCF
:1010B0001B6813F0007F06D1FFF700FD001B02281C
:1010C000F5D9032030E000202EE000202CE0012B99
:1010D0002CD0184B5B6803F48001E269914201D087
:1010E000012021E003F03F02216A8A4201D0012061
:1010F0001AE0616A47F6C0721A408A4201D00120A4
:1011000012E003F44032A16A8A4201D001200BE0D0
:1011100003F07063E26A93420AD0012004E00120E8
:101120007047012000E0002002B070BD0120FBE705
:101130000020F9E70038024060004742324B9B68CC
:1011400003F00C03042B5CD0082B01D02F48704710
:101150002DE9F04B2C4B5A6802F03F025B6813F408
:10116000800F2BD0284B5B68C3F388131E460027E3
:101170005C010025E41A65EB0705A90141EA9461C9
:10118000A001001B61EB0501CB0043EA5073C400D2
:10119000A01943EB07014B0243EAD0534402204617
:1011A00019460023FFF71CF8174B5B68C3F3014394
:1011B00001335B00B0FBF3F0BDE8F08B124B5B68D2
:1011C000C3F388131E4600275C010025E41A65EB73
:1011D0000705A90141EA9461A001001B61EB05012B
:1011E000CB0043EA5073C400A01943EB07018B0204
:1011F00043EA90538402204619460023FEF7F0FF8D
:10120000D2E70348704700BF003802400024F400D2
:1012100000127A00002800F09E8070B50446504B02
:101220001B6803F00F038B4209D2CBB24C4A1370F8
:10123000136803F00F038B4201D0012070BD2368B7
:1012400013F0020F17D013F0040F04D0454A93682F
:1012500043F4E0539360236813F0080F04D0414A2D
:10126000936843F4604393603E4A936823F0F0032D
:10127000A068034393600D46236813F0010F32D03A
:101280006368012B21D09A1E012A25D9354A12689C
:1012900012F0020F61D033498A6822F0030213432F
:1012A0008B60FFF70BFC06462E4B9B6803F00C038C
:1012B0006268B3EB820F16D0FFF700FC801B41F28F
:1012C00088339842F0D90320B8E7264A126812F40E
:1012D000003FE0D10120B1E7224A126812F0007FFE
:1012E000D9D10120AAE71E4B1B6803F00F03AB42C4
:1012F00009D9EAB21A4B1A701B6803F00F03AB420C
:1013000001D001209AE7236813F0040F06D0154A94
:10131000936823F4E053E1680B439360236813F070
:10132000080F07D00F4A936823F46043216943EA0A
:10133000C1039360FFF702FF0A4B9B68C3F30313DB
:10134000094AD35CD840094B1860094B1868FFF76D
:101350006BFB002072E70120704701206EE700BFA1
:10136000003C024000380240102D00080000002020
:1013700008000020014B1868704700BF00000020E3
:1013800008B5FFF7F7FF044B9B68C3F38223034ABA
:10139000D35CD84008BD00BF00380240202D0008B3
:1013A00008B5FFF7E7FF044B9B68C3F34233034ADA
:1013B000D35CD84008BD00BF00380240202D000893
:1013C000F8B505460F4616461C462B689B6837EA5B
:1013D00003030CBF01230023B34237D0B4F1FF3F16
:1013E000F3D0FFF76BFB069BC01AA04201D2002C82
:1013F000EBD12A68536823F0E00353606B68B3F5C0
:10140000827F0BD0AB6AB3F5005F14D0012385F85F
:101410005130002385F85030032018E0AB68B3F555
:10142000004F02D0B3F5806FECD12A68136823F027
:1014300040031360E6E72A68136823F4005313603F
:101440002A68136843F400531360DFE70020F8BDF7
:1014500030B585B0164C2468164DA5FB0434640DD8
:101460004FF47A7505FB04F403944468B4F5827F65
:101470000BD0039BC3B1039B013B039303689B68A1
:1014800013F0800FF5D100230FE00B4604460092C5
:1014900000228021FFF794FF034630B1636D43F0D3
:1014A00020036365032300E00023184605B030BD28
:1014B00000000020819F5E1610B582B0044640688F
:1014C000B0F5827F16D06068B0F5827F2ED1A36818
:1014D000B3F5806F1BD000920B460022802120467E
:1014E000FFF76EFF034650B3636D43F0200363655F
:1014F000032324E0A368B3F5004F02D0B3F5806F57
:10150000E1D12068036823F040030360DBE7009229
:101510000B46002201212046FFF752FF034670B11F
:10152000636D43F020036365032308E000920B46DC
:10153000002201212046FFF743FF034610B9184659
:1015400002B010BD636D43F0200363650323F6E72B
:1015500000283BD010B504460023836290F8513038
:10156000002B2ED0022384F851302268136823F018
:10157000400313606368A2681343E268134322695F
:10158000134362691343A26902F400721343E269D0
:101590001343226A1343A16A22680B431360638BCF
:1015A00003F00403616A22680B4353602268D36925
:1015B00023F40063D36100206065012384F8513077
:1015C00010BD80F85030FFF759F9CBE70120704784
:1015D0002DE9F04383B0DDF8288090F85040012CCD
:1015E00000F00B811D4617460E460446012380F885
:1015F0005030FFF763FA814694F85100C0B2636837
:10160000012815D0B3F5827F0AD00223012284F885
:101610005120002284F85020184603B0BDE8F08322
:10162000A368002B40F0DB80042801D00223EDE703
:10163000002E00F0D680002F00F0D580002D00F0A5
:10164000D48094F85130DBB2042B02D0052384F807
:10165000513000236365A763E587A5872663E58688
:10166000A5862364636423681A6812F0400F03D1CF
:101670001A6842F040021A60E368B3F5006F10D0B8
:1016800063680BB1012D0AD1226B236812781A739B
:10169000236B01332363E38E013B9BB2E386012579
:1016A00069E063680BB1012D0AD1226B23681288AF
:1016B000DA60236B02332363E38E013B9BB2E38644
:1016C00001251BE023689A6812F0010F0DD0E28F0C
:1016D00092B252B1DA68A36B1A80A36B0233A36390
:1016E000E38F013B9BB2E3870125FFF7E7F9A0EB0E
:1016F0000900404502D3B8F1FF3F78D1E38E9BB299
:101700001BB9E38F9BB2002B52D023689A6812F06A
:10171000020FD7D0E28E92B2002AD3D0002DD1D0C2
:10172000226B1288DA60236B02332363E38E013B62
:101730009BB2E3860025C5E723689A6812F0010F83
:101740000DD0E28F92B252B1DA68A36B1A70A36B1C
:101750000133A363E38F013B9BB2E3870125FFF7CE
:10176000ADF9A0EB0900404502D3B8F1FF3F40D1ED
:10177000B8F1000F3FD0E38E9BB213B9E38F9BB259
:10178000B3B123689A6812F0020FD5D0E28E92B2FC
:10179000002AD1D0002DCFD0226B12781A73236B80
:1017A00001332363E38E013B9BB2E3860025C3E74D
:1017B0004A4641462046FFF74BFE034618B1202318
:1017C0006365012322E7A268002A7FF41FAF01921C
:1017D0002268D168019192680192019A16E702236A
:1017E00014E7012312E7012310E701230EE7032387
:1017F0000CE703230AE7032308E702230CE72DE99C
:10180000F04182B004460F4690461D464368B3F54A
:10181000827F19D094F85030012B00F09F80012373
:1018200084F85030FFF74AF9064694F85130DBB29D
:10183000012B15D00220012384F85130002384F8B5
:10184000503002B0BDE8F0818368002BE2D1042360
:1018500080F85130009513460A46FFF7B9FEF0E7CD
:10186000002F6DD0B8F1000F6CD0042384F85130F4
:1018700000236365A763A4F83C80A4F83E8023633B
:10188000A386E38623646364A368B3F5004F0BD09B
:1018900023681A6812F0400F03D11A6842F0400220
:1018A0001A60E36883B12CE02268136823F4804354
:1018B0001360EDE7FFF702F9801BA84202D3B5F1F0
:1018C000FF3F41D1002D41D0E38F9BB2002B2BD0A5
:1018D00023689A6812F0010FECD0A26B1B7B137087
:1018E000A36B0133A363E38F013B9BB2E387EBE779
:1018F000FFF7E4F8801BA84202D3B5F1FF3F27D1E0
:1019000045B3E38F9BB27BB123689A6812F0010F55
:10191000EED0DA68A36B1A80A36B0233A363E38F64
:10192000013B9BB2E387ECE7324629462046FFF7AE
:10193000C3FD08B120236365636D6BB900207AE7AE
:10194000012078E7012076E7032074E7032072E79F
:10195000032070E703206EE701206CE7022070E7A8
:101960002DE9F04B04460268136923F44053C16823
:101970000B43136183680269134342691343C269CD
:101980001A430168CB6823F4164323F00C03134376
:10199000CB600268536923F4407381690B43536140
:1019A000C369B3F5004F3BD00368714A934200F01E
:1019B000AB8002F58062934200F0A680FFF7E0FC66
:1019C0004FF00009061849EB090716EB000B47EB2F
:1019D000090C4FEACC0343EA5B734FEACB02934610
:1019E0009C4663689A009B0F10EB0B0049EB0C01BF
:1019F000FEF7F6FB5F4DA5FB00325109642202FBA6
:101A0000110213013233A5FB03235B0903F0F0023B
:101A100002EB011203F00F03216813448B60A4E072
:101A20000368534A934239D002F58062934235D01D
:101A3000FFF7A6FC83464FF0000C06184CEB0C0792
:101A400016EB000847EB0C094FEAC90343EA587349
:101A50004FEAC8029046994662680021921841EB0D
:101A600001031BEB08004CEB0901FEF7B9FB414DEC
:101A7000A5FB00325109642202FB1102D30032336C
:101A8000A5FB03235B095A0002F4F87202EB011272
:101A900003F00703216813448B6066E0FFF780FCC6
:101AA00080464FF00009061849EB090716EB000BBA
:101AB00047EB090C4FEACC0343EA5B734FEACB02D6
:101AC00093469C4662680021921841EB010318EB93
:101AD0000B0049EB0C01FEF783FB264DA5FB003202
:101AE0005109642202FB1102D3003233A5FB032308
:101AF0005B095A0002F4F87202EB011203F00703CB
:101B0000216813448B6030E0FFF74AFC4FF0000976
:101B1000061849EB090716EB000B47EB090C4FEAD7
:101B2000CC0343EA5B734FEACB0293469C4663685F
:101B30009A009B0F10EB0B0049EB0C01FEF750FBDA
:101B40000C4DA5FB00325109642202FB1102130166
:101B50003233A5FB03235B0903F0F00202EB011211
:101B600003F00F03216813448B60BDE8F08B00BFC6
:101B7000001001401F85EB512DE9F04105460F464D
:101B800016469846069C2B681B6837EA03030CBF71
:101B900001230023B3421DD1B4F1FF3FF3D02CB198
:101BA000FEF78CFFA0EB0800A042ECD92A68D368AE
:101BB00023F4D073D3602A68536923F0010353617F
:101BC000202385F8393085F83A30002385F83830FD
:101BD000032000E00020BDE8F08158B310B50446B2
:101BE00090F839300BB3242384F839302268D36855
:101BF00023F40053D3602046FFF7B2FE2268136936
:101C000023F4904313612268536923F02A0353613C
:101C10002268D36843F40053D3600020E06320239C
:101C200084F8393084F83A3010BD80F83830FEF747
:101C300073FED8E7012070472DE9F04383B01E46BC
:101C400090F83930DBB2202B56D104460D46904631
:101C5000002956D0002A56D090F83830012B54D0A5
:101C6000012380F838304FF00009C0F83C90212360
:101C700080F83930FEF722FF0746A4F82480A4F844
:101C8000268084F8389010E000963B4600228021A0
:101C90002046FFF771FF002839D12B882268C3F353
:101CA000080353602369C3B90235E38C9BB2B3B117
:101CB000E38C013B9BB2E384A368B3F5805FE3D080
:101CC00000963B46002280212046FFF755FF00BBCF
:101CD0002A7823685A600135E7E70135E5E7009681
:101CE0003B46002240212046FFF746FF034690B9BD
:101CF000202284F8392000E00223184603B0BDE812
:101D0000F0830123F9E70123F7E70223F5E7032333
:101D1000F3E70323F1E70323EFE70000DFF834D014
:101D2000002103E00C4B5B58435004310B480C4B33
:101D300042189A42F6D30B4A02E0002342F8043BD1
:101D4000094B9A42F9D3FEF761FE00F017F8FEF74F
:101D5000F5FC704700800120FC2D000800000020E9
:101D6000700000207000002044010020FEE7000009
:101D7000014B1868704700BF0C00002070B50D4E75
:101D80000D4CA41BA4100025A54209D10B4E0C4CF0
:101D900000F0B2FFA41BA4100025A54205D170BD20
:101DA00056F8253098470135EEE756F82530984724
:101DB0000135F2E7F42D0008F42D0008F42D000899
:101DC000F82D000802440346934200D1704703F8FF
:101DD000011BF9E70FB40A4B13B51C6824B1A369C2
:101DE00013B9204600F036FA05AB049AA1680193B6
:101DF000204600F0EFFB02B0BDE8104004B0704791
:101E00000C00002038B5084B1C68054624B1A369B6
:101E100013B9204600F01EFAA26829462046BDE804
:101E2000384000F075BE00BF0C00002070B50E46B3
:101E3000054618B183690BB900F00CFAAB69AC68C0
:101E400013B9284600F006FA234B9C4217D16C6860
:101E5000A3891B071DD52369DBB1013EA36816F8D2
:101E6000011F013BA360E9B9002B2EDA22460A21AB
:101E7000284600F03FF8013011D00A2011E0174B3E
:101E80009C4201D1AC68E3E7154B9C4208BFEC686B
:101E9000DEE72146284600F07FF80028DDD04FF02D
:101EA000FF3070BD002B04DAA2699A4206DC0A29D1
:101EB00004D023685A1C22601970CFE722462846B6
:101EC00000F018F80130C9D1E9E723680A205A1C4C
:101ED00022601870E5E700BF782D0008982D0008F3
:101EE000582D0008024B01461868FFF79FBF00BF3E
:101EF0000C000020F8B50E461446054618B183695B
:101F00000BB900F0A7F9214B9C422AD16C68A36958
:101F1000A360A3891A072ED5236963B323692068B8
:101F2000C01A6369F6B28342374604DC214628466C
:101F300000F026F928BBA368013BA36023685A1C64
:101F400022601E7063690130834204D0A389DB07DD
:101F500019D50A2E17D12146284600F011F990B163
:101F60000FE00B4B9C4201D1AC68D0E7094B9C427F
:101F700008BFEC68CBE72146284600F00DF80028A2
:101F8000CCD04FF0FF373846F8BD00BF782D0008A1
:101F9000982D0008582D0008324B70B51D68064674
:101FA0000C4625B1AB6913B9284600F053F92E4B06
:101FB0009C420FD16C68B4F90C309AB215072CD43E
:101FC000D00611D40922326043F04003A3814FF0C0
:101FD000FF303EE0254B9C4201D1AC68EBE7244B3F
:101FE0009C4208BFEC68E6E7510712D5616B41B12E
:101FF00004F14403994202D0304600F019FA00235C
:102000006363A38923F02403A3810023636023690E
:102010002360A38943F00803A38123694BB9A389F3
:1020200003F42073B3F5007F03D02146304600F05F
:10203000BFF9A28912F001030CD00023A3606369E9
:102040005B42A361236953B9B4F90C3013F08000EB
:10205000BAD170BD920758BF6369A360F2E7002050
:10206000F7E700BF0C000020782D0008982D00082D
:10207000582D00088A892DE9F041054610070C46C5
:1020800058D44B68002B05DC0B6C002B02DC0020C5
:10209000BDE8F081E66A002EF9D0002312F48052E8
:1020A0002F68216A2B6032D0606DA3895A0705D54D
:1020B0006368C01A636B0BB1236CC01A002302461D
:1020C000E66A216A2846B047431CA38906D12968DD
:1020D0001D2948D8294ACA40D60744D50022626043
:1020E000D9042269226004D5421C01D12B6803B9AE
:1020F0006065616B2F600029C9D004F144039942E7
:1021000002D0284600F094F900206063C0E7012364
:102110002846B047411CC8D12B68002BC5D01D2BC9
:1021200001D0162B01D12F60B1E7A38943F0400302
:10213000A381ADE70F69002FA9D093070E6808BFF0
:102140004B690F6018BF0023A6EB07088B60B8F13E
:10215000000F9CDD43463A46216AA66A2846B047EE
:10216000002806DCA38943F04003A3814FF0FF3031
:102170008EE70744A8EB0008E9E700BF0100402014
:1021800038B50B6905460C46DBB118B183690BB94C
:1021900000F060F80C4B9C4209D16C68B4F90C302B
:1021A0007BB121462846BDE83840FFF763BF074BA7
:1021B0009C4201D1AC68F1E7054B9C4208BFEC683A
:1021C000ECE7002038BD00BF782D0008982D0008EE
:1021D000582D0008002310B50446C0E90033836081
:1021E00081814366C281C0E90433836119460822B4
:1021F0005C30FFF7E7FD054B6362054BA362054BBF
:10220000E362054B2462236310BD00BF9D2B0008D1
:10221000BF2B0008F72B00081B2C0008014900F019
:1022200085B800BF8121000870B54A1E6825554356
:102230000E4605F1740100F049F9044640B1002151
:10224000C0E900160C30A06005F16802FFF7BAFD86
:10225000204670BD836910B5044633BBC0E9123314
:102260000365124B124A1B688262984204BF012325
:10227000836100F01FF86060204600F01BF8A0604A
:10228000204600F017F80022E06004216068FFF7A4
:10229000A1FF01220921A068FFF79CFF0222122161
:1022A000E068FFF797FF0123A36110BD542D0008DC
:1022B0001D220008F8B51B4B1E68B369074613B909
:1022C0003046FFF7C7FF4836D6E90134013B03D556
:1022D000336833B13668F7E7B4F90C506DB1683440
:1022E000F4E704213846FFF79FFF30600028F1D162
:1022F0000C233B6004462046F8BD0B4B6566C4E9E1
:102300000055A560C4E90335C4E9055508222946EE
:1023100004F15C00FFF756FDC4E90D55C4E9125500
:10232000E9E700BF542D00080100FFFF2DE9F84345
:102330008046894600F14804002614B93046BDE8BD
:10234000F883D4E90175013F01D52468F5E7AB892D
:10235000012B07D9B5F90E30013303D02946404689
:10236000C84706436835EEE770B50E46B1F90E1062
:10237000002996B014461D4607DA00232B60B38966
:102380001A0610D44FF480630EE06A4600F06CFC2D
:102390000028F2DB019A02F47042A2F500535A427F
:1023A0005A412A60EEE740230020236016B070BD3A
:1023B0008B8973B59D0706460C4607D504F1470384
:1023C000236023610123636102B070BD01AB6A46E3
:1023D000FFF7CAFF00990546304600F077F848B984
:1023E000B4F90C309A05EFD423F0030343F0020351
:1023F000A381E3E70D4BB362A389206043F0800320
:10240000A381009B6361019B20615BB1B4F90E1055
:10241000304600F03BFC28B1A38923F0030343F0CE
:102420000103A381A3891D43A581CDE71D220008D7
:1024300038B50546002945D051F8043C0C1F002B47
:10244000B8BFE41800F044FC1F4A1368104633B9C3
:10245000636014602846BDE8384000F03ABCA342EF
:102460000CD921686218934204BF1A685B686360E4
:1024700004BF521822600460ECE713465A680AB1A0
:10248000A242FAD919685818A0420BD12068014419
:10249000581882421960DDD1106852685A600144B0
:1024A0001960D7E702D90C232B60D3E720682118E5
:1024B0008A4204BF11685268626004BF0918216033
:1024C0005C60C7E738BD00BF9400002070B5CD1C2C
:1024D00025F0030508350C2D38BF0C25002D0646C8
:1024E00001DBA94203D90C233360002070BD00F04A
:1024F000EFFB214A1468214691B9204C23681BB98F
:10250000304600F03BFB20602946304600F036FBA9
:10251000431C24D10C233360304600F0DAFBE4E79F
:102520000B685B1B18D40B2B0FD90B60CD50CC184C
:10253000304600F0CEFB04F10B00231D20F0070015
:10254000C31AD3D05A42E250D0E78C424B6816BF30
:10255000636013600C46EBE70C464968CCE7C41C8B
:1025600024F00304A04205D0211A304600F006FBF7
:102570000130CFD02560DBE79400002098000020D8
:102580009368013B002B10B4936008DA9469A3426E
:1025900001DB0A2903D15DF8044BFFF7ABBC1368DC
:1025A000581C1060197008465DF8044B7047F8B568
:1025B00006460F461446D518AC4201D1002007E06C
:1025C0003A4614F8011B3046FFF7DAFF431CF3D1FB
:1025D000F8BD00002DE9F04F0C469DB017461D4692
:1025E000064618B183690BB9FFF734FE7C4B9C4259
:1025F00058D17468A38918075ED52369002B5BD076
:102600000023099320238DF8293030238DF82A30B8
:1026100003954FF0010BB846454615F8013B0BB149
:10262000252B54D1B8EB070A0BD053463A46214626
:102630003046FFF7BCFF013000F0C280099B5344D5
:10264000099398F80030002B00F0BA8000234FF077
:10265000FF32CDE90523049307938DF853301A9385
:10266000A846052218F8011B5E48FDF739FF049BB8
:1026700078BBD90644BF20228DF853201A0744BFE7
:102680002B228DF853202A782A2A2AD0079AA84686
:1026900000200A25414611F8013B303B092B69D93E
:1026A00060B324E0504B9C4201D1B468A2E74F4B89
:1026B0009C4208BFF4689DE721463046FFF76CFC5A
:1026C00000289DD04FF0FF301DB0BDE8F08FA84628
:1026D000A2E7444A801A0BFA00F0184304904546DA
:1026E000BEE7039A111D12680391002A01DB0792CD
:1026F00004E0524243F002030792049398F800303A
:102700002E2B0ED198F801302A2B38D1039B1A1D9D
:102710001B680392002BB8BF4FF0FF3308F102088B
:102720000593334D98F8001003222846FDF7D8FE94
:1027300040B14023401B03FA00F0049B034308F11F
:102740000108049398F800102A488DF828100622F2
:1027500008F10107FDF7C4FE002837D0264B1BBB4C
:10276000039B073323F0070308330393099B4B4470
:10277000099350E705FB0232012088468AE70023CF
:1027800008F10108059319460A25404610F8012B67
:10279000303A092A03D9002BC3D00591C1E705FBC4
:1027A000012101238046F0E703AB00932246134B3F
:1027B00004A93046AFF30080B0F1FF3F8146D5D188
:1027C000A3895B063FF57EAF09987DE703AB0093D5
:1027D00022460A4B04A9304600F088F8ECE700BF17
:1027E000782D0008B82D0008982D0008582D0008F5
:1027F000BE2D0008C22D000800000000AF25000813
:102800002DE9F04791461F468A680B69DDF8208064
:102810009342B8BF1346C9F8003091F843200646EA
:102820000C4612B10133C9F800302368990642BF43
:10283000D9F800300233C9F80030256815F00605D4
:1028400007D104F1190AE368D9F800209B1AAB42BA
:1028500028DC94F843302268003318BF0123920625
:102860002DD404F1430239463046C047013020D010
:102870002368E568D9F8002003F00603042B08BF9D
:10288000AD1AA36822690CBF25EAE57500259342BD
:10289000C4BF9B1AED184FF000091A344D451AD1E8
:1028A000002008E00123524639463046C047013037
:1028B00003D14FF0FF30BDE8F0870135C3E7E118E1
:1028C0005A1C302081F84300224494F8451082F8C5
:1028D00043100233C5E70123224639463046C0473C
:1028E0000130E6D009F10109D8E700002DE9F043F5
:1028F00001F1430C0C46097E85B06E291746064649
:1029000098460C9A00F0B38022D8632936D00AD8B2
:10291000002900F0B980582900F0838004F14205B5
:1029200084F8421032E0642901D06929F6D1206888
:102930001368050603F104012AD51B681160002BFA
:1029400003DA2D225B4284F843206F480A2239E0E3
:10295000732900F09D8008D86F2920D07029DDD11F
:10296000236843F02003236003E0752917D07829FA
:10297000D4D1782384F84530644855E01368191D94
:102980001B68116004F1420584F8423001238CE099
:102990001B68116010F0400F18BF1BB2CFE713681F
:1029A0002568181D1060280601D51B6802E068061E
:1029B000FBD51B8854486F2914BF0A220822002126
:1029C00084F843106568A560002DC0F295802168E9
:1029D00021F004012160002B3DD1002D40F08E80BC
:1029E0006546082A0BD12368DB0708D5236962688E
:1029F0009A42DEBF302305F8013C05F1FF35ACEB10
:102A000005032361CDF800803B4603AA21463046EA
:102A1000FFF7F6FE01304DD14FF0FF3005B0BDE8B5
:102A2000F083394884F84510136821681D1D1B6820
:102A300015600A060BD5CA0744BF41F0200121608A
:102A40001BB9226822F0200222601022B7E74D064F
:102A500048BF9BB2EFE76546B3FBF2F102FB1133CF
:102A6000C35C05F8013D0B460029F5D1B9E71368B1
:102A700025686169181D106028061B6801D519605A
:102A800002E06A06FBD51980002323616546B9E799
:102A90001368191D11601D68626800212846FDF742
:102AA0001FFD08B1401B606063682361002384F848
:102AB0004330A7E723692A4639463046C0470130EC
:102AC000AAD023689B0713D4E068039B9842B8BF41
:102AD0001846A3E701234A4639463046C04701302D
:102AE0009AD00135E368039A9B1AAB42F2DCEBE71C
:102AF000002504F11909F5E7002BACD1037884F81F
:102B0000423004F142056CE7C92D0008DA2D0008B7
:102B100070B50D461446064618B183690BB9FFF728
:102B200099FB134B9C4212D17468A368013B002BA4
:102B3000A36016DAA269934202DBEBB20A2B10D132
:102B4000224629463046BDE87040FFF7D3B9094B0D
:102B50009C4201D1B468E8E7074B9C4208BFF46887
:102B6000E3E723685A1C22601D70E8B270BD00BF05
:102B7000782D0008982D0008582D000838B5064C0F
:102B80000023054608462360FDF716FF431C02D1CB
:102B9000236803B12B6038BD4001002010B50C46FE
:102BA000B1F90E1000F096F80028ABBF636DA38951
:102BB0001B1823F48053ACBF6365A38110BD2DE9BE
:102BC000F0411F468B89DB0505460C46164605D5A8
:102BD00002230022B1F90E1000F068F8A389B4F9BD
:102BE0000E1023F48053A38132463B462846BDE8AD
:102BF000F04100F017B810B50C46B1F90E1000F016
:102C000055F8431CA38915BF606523F4805343F432
:102C10008053A38118BFA38110BDB1F90E1000F03D
:102C200013B8000038B5074C054608461146002287
:102C300022601A46FDF7DCFD431C02D1236803B174
:102C40002B6038BD4001002038B5064C00230546F6
:102C500008462360FDF7CEFE431C02D1236803B172
:102C60002B6038BD4001002038B5074C00230546D5
:102C7000084611462360FDF7C0FE431C02D12368BD
:102C800003B12B6038BD00BF4001002038B5064CB1
:102C90000023054608462360FDF7B4FE431C02D11D
:102CA000236803B12B6038BD4001002038B5074CC4
:102CB000054608461146002222601A46FDF7A4FE8A
:102CC000431C02D1236803B12B6038BD40010020B2
:102CD0007047704738B5074C054608461146002234
:102CE00022601A46FDF75AFE431C02D1236803B145
:102CF0002B6038BD40010020F8B500BFF8BC08BC0F
:102D00009E467047F8B500BFF8BC08BC9E467047A9
:102D1000000000000000000001020304060708098B
:102D20000000000001020304746573746500000074
:102D300072656365697665640000000025642000A3
:102D4000202D204352433A200000000030782530E7
:102D50003278200010000020000000000000000079
:102D60000000000000000000000000000000000063
:102D70000000000000000000000000000000000053
:102D80000000000000000000000000000000000043
:102D90000000000000000000000000000000000033
:102DA0000000000000000000000000000000000023
:102DB0000000000000000000232D302B2000686C74
:102DC0004C0065666745464700303132333435364E
:102DD0003738394142434445460030313233343587
:0C2DE000363738396162636465660000B4
:082DEC0024D4FF7F0100000068
:042DF400C50100080D
:042DF800A10100082D
:102DFC000024F4000100000010000000100000206E
:102E0C0000000000782D0008982D0008582D0008AF
:102E1C0000000000000000000000000000000000A6
:102E2C000000000000000000000000000000000096
:102E3C000000000000000000000000000000000086
:102E4C000000000000000000000000000000000076
:102E5C000000000000000000000000000000000066
:0400000508001D1DB5
:00000001FF
